:1000000012C02CC02BC02AC029C028C027C026C0BF
:1000100025C024C023C022C021C020C01FC01EC0D4
:100020001DC01CC01BC011241FBECFE5D4E0DEBF25
:10003000CDBF10E0A0E6B0E0EEE4F2E002C0059033
:100040000D92A238B107D9F710E0A2E8B0E001C0E4
:100050001D92A338B107E1F750D0F7C0D1CF8FEF91
:1000600088BB17BA15BA14BA12BA8AE381BB0895CD
:100070001AB81BB886E880BD8DE489B910BC88E148
:100080008AB908955D9BFECF8CB9089528E833E1C5
:1000900048EC50E005C0CA010197F1F7215030400B
:1000A00021153105C1F782B3886382BB28E833E1AB
:1000B000CA010197F1F721503040D1F782B3877C14
:1000C00082BB28E833E1E7CF60E875E280E090E0AA
:1000D00042D00895F8948FEF88BB17BA15BA14BAB6
:1000E00012BA8AE381BB60E875E280E090E033D029
:1000F00015BE1BBE19BE78940895ECDF12BA80E6D7
:1001000090E01DD028E833E148EC50E0211531059E
:1001100081F482B3886382BB28E833E1CA01019786
:10012000F1F721503040D1F782B3877C82BB28E8B9
:1001300033E1CA010197F1F721503040E7CFFC01CC
:100140008081882339F031965D9BFECF8CB9808108
:100150008823C9F708959B01AC0160E271EA87E04A
:1001600090E051D021503040404050401AB8C90171
:1001700080709078892B29F082E08BB93F774070AE
:100180005070BB27A52F942F832F80BD29B986E8F7
:1001900080BD8AB188618AB981E080938200089528
:1001A0005D9BFECF08955D9BFECF8CB908955D9B4E
:1001B000FECF509890FD509A8CB908955F9BFECF6A
:1001C0008CB10895FC018491882339F031965D9BB0
:1001D000FECF8CB984918823C9F70895982F929502
:1001E0009F70993070F4905D5D9BFECF9CB98F70CD
:1001F000893028F4805D5D9BFECF8CB90895895AC3
:10020000FACF995AF1CFA1E21A2EAA1BBB1BFD010E
:100210000DC0AA1FBB1FEE1FFF1FA217B307E407E5
:10022000F50720F0A21BB30BE40BF50B661F771F3D
:10023000881F991F1A9469F760957095809590951D
:0E0240009B01AC01BD01CF010895F894FFCFE2
:10024E002F2A2A2A2A2A2A2A2A2A2A2A2A2A2A2AFB
:10025E002A2A2A2A2A2A2A2A2A2A2A2A2A2A2F0D08
:02026E000A0084
:00000001FF
