:1000000012C02CC02BC02AC029C028C027C026C0BF
:1000100025C024C023C0AEC0D7C020C01FC01EC092
:100020001DC01CC01BC011241FBECFE5D4E0DEBF25
:10003000CDBF10E0A0E6B0E0E8E1F9E002C0059035
:100040000D92AE3AB107D9F710E0AEEAB0E001C0C8
:100050001D92A33FB107E1F74CD05CC4D1CF8FEF25
:1000600088BB17BA15BA14BA12BA8AE381BB0895CD
:100070001AB81BB886E880BD8DE489B910BC88E148
:100080008AB908955D9BFECF8CB9089528E833E1C5
:1000900048EC50E005C0CA010197F1F7215030400B
:1000A00021153105C1F782B3886382BB28E833E1AB
:1000B000CA010197F1F721503040D1F782B3877C14
:1000C00082BB28E833E1E7CF83E390E0A2D0089534
:1000D000F8948FEF88BB17BA15BA14BA12BA8AE32C
:1000E00081BB83E390E095D015BE1BBE19BE78940A
:1000F0000895EEDF12BA80E690E013D100D000D070
:1001000000D0EDB7FEB7319682E890E0ADB7BEB74C
:1001100012969C938E93119789E990E09383828342
:1001200085EA90E09583848308D128E833E18DB790
:100130009EB706960FB6F8949EBF0FBE8DBF48ECD3
:1001400050E02115310581F482B3886382BB28E831
:1001500033E1CA010197F1F721503040D1F782B362
:10016000877C82BB28E833E1CA010197F1F721506F
:100170003040E7CF1F920F920FB60F9211242F93AA
:100180008F939F93EF93FF939BB12CB1E091F0007D
:10019000EF5FEF718091F100E817A1F0892F88716E
:1001A000E093F000F0E0E253FF4F20838093F200F1
:1001B000FF91EF919F918F912F910F900FBE0F9014
:1001C0001F90189582E0F2CF1F920F920FB60F92F8
:1001D00011248F939F93EF93FF939091EE00809162
:1001E000EF009817A1F0E091EF00EF5FEF71E0935F
:1001F000EF00F0E0E255FF4F80818CB9FF91EF9165
:100200009F918F910F900FBE0F901F90189555984A
:10021000F5CF9C011092EE001092EF001092F000CA
:100220001092F10097FF03C082E08BB93F7730BD99
:1002300029B988E98AB986E880BD08958AB18069BC
:100240008AB99091F0008091F100981741F1E09106
:10025000F100EF5FEF71E093F100F0E0E253FF4F48
:1002600030819091EE009F5F9F718091EF00981711
:1002700029F4559A8091EF009817D9F3E92FF0E00F
:10028000E255FF4F30839093EE00559A2091F20093
:10029000922F80E0FC01E30FF11DCF010895E0E013
:1002A000F1E0CF01089557985F9BFECF8CB1089580
:1002B000282F9091EE009F5F9F718091EF0098171B
:1002C00029F4559A8091EF009817D9F3E92FF0E0BF
:1002D000E255FF4F20839093EE00559A08955D9B61
:1002E000FECF8CB90895DC012C912223C9F0119620
:1002F0009091EE009F5F9F718091EF00981729F415
:10030000559A8091EF009817D9F3E92FF0E0E25564
:10031000FF4F20839093EE00559A2C91222339F7BA
:100320000895FC018081882339F031965D9BFECFD2
:100330008CB980818823C9F708950F931F93DF93A9
:10034000CF93CDB7DEB7C050D1400FB6F894DEBF23
:100350000FBECDBFFE01E95FFE4F619171918E012D
:100360000F5F1F4FC801AF0117D08981882341F06B
:10037000F80131965D9BFECF8CB980818823C9F747
:10038000C050DF4F0FB6F894DEBF0FBECDBFCF9188
:10039000DF911F910F910895AEE0B0E0E1EDF1E043
:1003A00090C28C0186E08C831A8309838FEF9FE7CC
:1003B0009E838D83CE01019608D0EF81F885E00FF2
:1003C000F11F10822E96E4E098C2ABE0B0E0EAEEB6
:1003D000F1E069C23C012B015A01FC01178216822F
:1003E000838181FD03C06FEF7FEFB9C19AE0892E51
:1003F0001E010894211C311CF3012381F20123FD0D
:10040000859123FF81912F01882309F4A5C18532AD
:1004100039F423FD859123FF81912F01853221F449
:1004200090E0B301B6D1E8CF982FFF24EE249924B1
:10043000FFE1FF15D0F09B3269F09C3228F4903236
:1004400059F0933291F40EC09D3249F0903369F423
:1004500041E024C052E0F52A84E0F82A28C098E060
:10046000F92A25C0E0E1FE2A22C0F7FC29C0892F25
:1004700080538A3070F4F6FE05C0989C902C1124AD
:10048000980E15C0E89CE02C1124E80EF0E2FF2A3B
:100490000EC09E3229F4F6FC5FC140E4F42A07C086
:1004A0009C3619F450E8F52A02C0983649F4F20156
:1004B00023FD959123FF91912F01992309F0B8CF46
:1004C000892F8554833018F08052833038F444E00B
:1004D00050E0A40EB51E5FE359830FC0933631F090
:1004E000933779F0933509F052C01FC0F501808130
:1004F000898342E050E0A40EB51E610101E010E0E6
:1005000011C0F501C080D180F6FC03C06FEF7FEF12
:1005100002C0692D70E042E050E0A40EB51EC60195
:100520002DD18C015FE7F52213C0F501C080D18089
:10053000F6FC03C06FEF7FEF02C0692D70E042E070
:1005400050E0A40EB51EC6010ED18C0150E8F52A6C
:10055000F3FE06C018C080E290E0B3011AD1EA941D
:100560008E2D90E008171907B0F30DC0F601F7FCC7
:100570008591F7FE81916F0190E0B3010AD1E110FE
:10058000EA94015010400115110581F7E2C094363C
:1005900011F0993661F5F7FE08C0F501208131812F
:1005A0004281538184E090E00AC0F501808191810D
:1005B0009C01442737FD4095542F82E090E0A80E1F
:1005C000B91E9FE6F92257FF09C050954095309516
:1005D00021953F4F4F4F5F4FE0E8FE2ACA01B90116
:1005E000A1012AE030E001D1D82ED2183FC09537C2
:1005F00029F41F2D1F7E2AE030E01DC01F2D197F1A
:100600009F3661F0903720F4983509F0A5C00FC0EF
:10061000903739F0983709F09FC004C028E030E0E7
:100620000AC0106114FD146020E130E004C014FD24
:10063000166020E132E017FF08C0F501608171818A
:100640008281938144E050E008C0F501808191816E
:10065000BC0180E090E042E050E0A40EB51EA10194
:10066000C4D0D82ED2188FE7F82EF122F6FE0BC098
:100670005EEFF522D91438F4F4FE07C0F2FC05C091
:100680008FEEF82202C01D2D01C0192DF4FE0DC001
:10069000FE01ED0DF11D8081803319F499EEF922F0
:1006A00008C01F5FF2FE05C003C08F2D867809F0D9
:1006B0001F5F0F2DF3FC13C0F0FE0EC01E1510F0CF
:1006C0009D2C0AC09D2C9E0C911A1E2D05C080E207
:1006D00090E0B3015ED01F5F1E15C8F304C01E1565
:1006E00010F4E11A01C0EE2404FF0EC080E390E094
:1006F000B3014FD002FF1BC001FD03C088E790E0AB
:100700000EC088E590E00BC0802F867881F001FF55
:1007100002C08BE201C080E2F7FC8DE290E0B30101
:1007200038D005C080E390E0B30133D09A94D91457
:10073000C8F3DA94F101ED0DF11D808190E0B30171
:1007400028D0DD20B1F705C080E290E0B30121D0D0
:10075000EA94EE20C9F750CEF30166817781CB0190
:100760002B96E2E1BCC0FC01059061507040011085
:10077000D8F7809590958E0F9F1F0895FC016150CA
:10078000704001900110D8F7809590958E0F9F1FB3
:1007900008950F931F93CF93DF938C01EB018B810F
:1007A00081FF1BC082FF0DC02E813F818C819D8106
:1007B0002817390764F4E881F9810193F983E88304
:1007C00006C0E885F985802F0995892B31F48E8143
:1007D0009F8101969F838E8302C00FEF1FEFC80198
:1007E000DF91CF911F910F910895FA01AA27283028
:1007F00051F1203181F1E8946F936E7F6E5F7F4FEE
:100800008F4F9F4FAF4FB1E03ED0B4E03CD0670F69
:10081000781F891F9A1FA11D680F791F8A1F911DBC
:10082000A11D6A0F711D811D911DA11D20D009F40C
:1008300068943F912AE0269F11243019305D31934E
:10084000DEF6CF010895462F4770405D4193B3E037
:100850000FD0C9F7F6CF462F4F70405D4A3318F0DE
:10086000495D31FD4052419302D0A9F7EACFB4E08F
:10087000A6959795879577956795BA95C9F7009747
:100880006105710508959B01AC010A2E06945795E8
:10089000479537952795BA95C9F7620F731F841F3F
:1008A000951FA01D08952F923F924F925F926F92D5
:1008B0007F928F929F92AF92BF92CF92DF92EF92F0
:1008C000FF920F931F93CF93DF93CDB7DEB7CA1B71
:1008D000DB0B0FB6F894DEBF0FBECDBF09942A889C
:1008E000398848885F846E847D848C849B84AA8444
:1008F000B984C884DF80EE80FD800C811B81AA81D1
:10090000B981CE0FD11D0FB6F894DEBF0FBECDBF9B
:08091000ED010895F894FFCFFA
:100918002F2A2A2A2A2A2A2A2A2A2A2A2A2A2A2A2A
:100928002A2A2A2A2A2A2A2A2A2A2A2A2A2A2F0D37
:100938000A004275696C642054696D65203A202567
:10094800732025730D0A0D0A004465632031342095
:0E095800323031320030393A35353A3036001F
:00000001FF
