:100000000C942A000C9447000C9447000C94470071
:100010000C9447000C9447000C9447000C94470044
:100020000C9447000C9447000C9447000C94470034
:100030000C9447000C9447000C9447000C94470024
:100040000C9447000C9447000C9447000C94470014
:100050000C94470011241FBECFE5D4E0DEBFCDBF16
:1000600010E0A0E6B0E0E0E2F6E002C005900D92FC
:10007000AA3BB107D9F710E0AAEBB0E001C01D928E
:10008000AB3BB107E1F70E94A1010C940E030C9465
:10009000000080EF84BB15BA82E081BB12BA1ABAA5
:1000A0001BBA17BA8FEF88BB08958FEF88BB80EB20
:1000B00087BB8FE78DB91EB8C69880E690E00E9496
:1000C000A60185E58FB9779BFECF82E790E00E947D
:1000D000A6018AEA8FB9779BFECF82E790E00E9463
:1000E000A6018FEF8FB9779BFECF82E790E00E9449
:1000F000A6010895AF92BF92CF92DF92EF92FF9246
:100100000F931F93DF93CF93CDB7DEB728970FB62A
:10011000F894DEBF0FBECDBF82E890E00E94A6013A
:100120000E940B0280E867E00E941B02182F8823C0
:1001300009F0D8C086EA90E00E94A6010E940B0256
:1001400000E010E08FEF0E9496020F5F1F4F0A3011
:100150001105C1F780E440E050E060E070E025E97F
:100160005E010894A11CB11C8501B8E0EB2EF12CB6
:100170000E94A10265018E01075F1F4FF601819168
:100180006F010E94F60180E20E94DB01C016D106D9
:10019000A9F783EA90E00E94A60181E440E050E0E4
:1001A00060E070E02FEF8501A8E0EA2EF12C0E94BC
:1001B000A102F80181918F010E94F60180E20E9464
:1001C000DB01C016D106A9F783EA90E00E94A601E0
:1001D00080E540E050E060E070E02FEF8501F8E05E
:1001E000EF2EF12C0E94A102F80181918F010E9453
:1001F000F60180E20E94DB01C016D106A9F783EA6E
:1002000090E00E94A6010E94E601182F0E94DB01E7
:1002100085EB90E00E94A601133309F44BC0143320
:10022000E0F4113379F1123371F781E440E050E0EA
:1002300060E070E02FEF850138E0E32EF12C0E94A2
:10024000A102F80181918F010E94F60180E20E94D3
:10025000DB01C016D106A9F7D2CF113511F0113745
:1002600091F628960FB6F894DEBF0FBECDBFCF91A2
:10027000DF911F910F91FF90EF90DF90CF90BF9093
:10028000AF90089580E440E050E060E070E025E940
:100290008501E8E0EE2EF12C0E94A102F801819187
:1002A0008F010E94F60180E20E94DB01C016D10698
:1002B000A9F7A5CF80E540E050E060E070E02FEFC7
:1002C000850198E0E92EF12C0E94A102F8018191AC
:1002D0008F010E94F60180E20E94DB01C016D10668
:1002E000A9F78DCF80E990E00E94A601812F0E949E
:1002F000F60183EA90E00E94A601B3CF0E941102AA
:10030000089560E875E280E090E00E94B2010895EF
:10031000F89480EF84BB15BA82E081BB12BA1ABA96
:100320001BBA17BA8FEF88BB60E875E280E090E0F7
:100330000E94B2010E94110215BE1BBE19BE789424
:1003400008950E9488010E947A00FFCFFC018081FD
:10035000882339F031965D9BFECF8CB9808188234C
:10036000C9F708959B01AC0160E472E48FE090E06E
:100370000E94EC0221503040404050401AB8C90160
:1003800080709078892B29F082E08BB93F7740709C
:100390005070BB27A52F942F832F80BD29B986E8E5
:1003A00080BD8AB188618AB981E08093BA000895DE
:1003B0005D9BFECF08955D9BFECF8CB908955D9B3C
:1003C000FECF509890FD509A8CB908955F9BFECF58
:1003D0008CB10895FC018491882339F031965D9B9E
:1003E000FECF8CB984918823C9F70895982F9295F0
:1003F0009F70993070F4905D5D9BFECF9CB98F70BB
:10040000893028F4805D5D9BFECF8CB90895895AB0
:10041000FACF995AF1CFBC9AC49A0895BC9AC4985D
:10042000089587B3806A87BB88B3806988BBBE980C
:100430001DB81EB808952DB19EB1803109F460C079
:100440008131C0F0803409F457C08038E9F080323F
:10045000D9F4699A6898709A6330D9F46D986B9A58
:100460006A9ABC9B29C08DB180658DB977993AC0D5
:1004700080E008958430E1F1883081F1823021F408
:1004800069986898709A03C0699A689A70986330FE
:1004900029F3643040F46130D9F16230D8F06D98BE
:1004A0006B9A6A9807C0653079F1653058F46D9A97
:1004B0006B986A98BC99D7CFB499D5CF2DB99EB90E
:1004C0008EEF0895663061F1673031F12DB99EB934
:1004D0008FEF08956D986B986A98ECCF6998689A39
:1004E000709AD5CF8EEF9EB18150E8F780E00895E5
:1004F000699868987098CBCF699A68987098C7CFB8
:100500006998689A7098C3CF6D9A6B986A9AD2CF9F
:100510006D986B986A9ACECF6D9A6B9A6A9ACACF89
:100520006D9A6B9A6A98C6CF8FB908958FB9779BE9
:10053000FECF8FB108958FEF8FB9779BFECF8FB12C
:1005400008958F929F92AF92BF92CF92DF92EF92D7
:10055000FF920F931F93CF93DF93982E5A016B0155
:10056000822E0E940E02892D0E9496028D2D9927BF
:10057000AA27BB270E949602C601AA27BB270E9472
:100580009602BB27AD2D9C2D8B2D0E9496028A2DA5
:100590000E949602882D0E949602E114F10469F0EF
:1005A000C0E0D0E08FEF0E949602F801EC0FFD1F33
:1005B00080832196CE15DF05A8F30E940B02DF9100
:1005C000CF911F910F91FF90EF90DF90CF90BF9050
:1005D000AF909F908F900895A1E21A2EAA1BBB1B8B
:1005E000FD010DC0AA1FBB1FEE1FFF1FA217B307FF
:1005F000E407F50720F0A21BB30BE40BF50B661F15
:10060000771F881F991F1A9469F7609570958095D8
:1006100090959B01AC01BD01CF010895F894FFCFE7
:10062000496E207370695F746573742E2E2E2E0DC3
:100630000A0053656E64206F6E6520427974650D03
:100640000A00496E2053445F746573743A0D0A00C2
:10065000496E697420535049204661696C65643A5B
:100660003078000D0A00496E697420535049204FBC
:0A0670004B210D0A003A0D0A20008C
:00000001FF
