:100000000C942A000C9447000C9447000C94470071
:100010000C9447000C9447000C9447000C94470044
:100020000C9447000C9447000C9447000C94470034
:100030000C9447000C9447000C9447000C94470024
:100040000C9447000C9447000C9447000C94470014
:100050000C94470011241FBECFE5D4E0DEBFCDBF16
:1000600010E0A0E6B0E0E0E6F6E002C005900D92F8
:10007000A23FB107D9F710E0A2EFB0E001C01D9296
:10008000A33FB107E1F70E94CB010C942E030C941F
:10009000000080EF84BB15BA82E081BB12BA1ABAA5
:1000A0001BBA17BA8FEF88BB08952FEB27BB892B9C
:1000B00011F418BAFFCF8FEF88BBFCCF8FEF88BB4E
:1000C00080EB87BB8FE78DB91EB8C69880E690E0BD
:1000D0000E94D00185E58FB9779BFECF82E790E043
:1000E0000E94D0018AEA8FB9779BFECF82E790E029
:1000F0000E94D0018FEF8FB9779BFECF82E790E00F
:100100000E94D0010895AF92BF92CF92DF92EF92FA
:10011000FF920F931F93DF93CF93CDB7DEB728974E
:100120000FB6F894DEBF0FBECDBF82E890E00E940C
:10013000D0010E94290280E860E00E943B02182F53
:10014000882309F0F7C080EB90E00E94D0018FEB8C
:1001500090E00E94D0010E94290200E010E080E0BF
:100160000E94B6020F5F1F4F0F301105C1F782EDDD
:1001700090E00E94D00187ED90E00E94D0010E94A3
:100180002C0280E40E94B60280E00E94B60280E069
:100190000E94B60280E00E94B60280E00E94B60291
:1001A00085E90E94B6028FEF0E94B6028F3FD9F315
:1001B0000E94290282ED90E00E94D0015E01089425
:1001C000A11CB11C65018E01075F1F4FF6018191D3
:1001D0006F010E94140280E20E940502C016D1063F
:1001E000A9F78DEA90E00E94D00181E440E050E060
:1001F00060E070E02FEF8501A8E0EA2EF12C0E946C
:10020000C102F80181918F010E94140280E20E94D4
:100210000502C016D106A9F78DEA90E00E94D00130
:1002200080E540E050E060E070E02FEF8501F8E00D
:10023000EF2EF12C0E94C102F80181918F010E94E2
:10024000140280E20E940502C016D106A9F78DEAC9
:1002500090E00E94D0010E941002182F0E94050217
:100260008DEE90E00E94D001133309F44BC014339B
:10027000E0F4113379F1123371F781E440E050E09A
:1002800060E070E02FEF850138E0E32EF12C0E9452
:10029000C102F80181918F010E94140280E20E9444
:1002A0000502C016D106A9F7D2CF113511F01137CA
:1002B00091F628960FB6F894DEBF0FBECDBFCF9152
:1002C000DF911F910F91FF90EF90DF90CF90BF9043
:1002D000AF90089580E440E050E060E070E025E9F0
:1002E0008501E8E0EE2EF12C0E94C102F801819117
:1002F0008F010E94140280E20E940502C016D106FE
:10030000A9F7A5CF80E540E050E060E070E02FEF76
:10031000850198E0E92EF12C0E94C102F80181913B
:100320008F010E94140280E20E940502C016D106CD
:10033000A9F78DCF8AE990E00E94D001812F0E9419
:1003400014028DEA90E00E94D001B3CF81E00E94B8
:100350002F02089560E875E280E090E00E94DC01E1
:100360000895F89480EF84BB15BA82E081BB12BA7D
:100370001ABA1BBA17BA8FEF88BB60E875E280E043
:1003800090E00E94DC0181E00E942F0215BE1BBE9E
:1003900019BE789408950E94B1010E948300FFCF96
:1003A000FC018081882339F031965D9BFECF8CB9AA
:1003B00080818823C9F708959B01AC0160E472E451
:1003C0008FE090E00E940C032150304040405040AC
:1003D0001AB8C90180709078892B29F082E08BB916
:1003E0003F7740705070BB27A52F942F832F80BD7F
:1003F00029B986E880BD8AB188618AB981E0809395
:10040000F20008955D9BFECF08955D9BFECF8CB9F1
:1004100008955D9BFECF509890FD509A8CB9089539
:100420005F9BFECF8CB10895982F92959F70993065
:1004300070F4905D5D9BFECF9CB98F70893028F47D
:10044000805D5D9BFECF8CB90895895AFACF995A89
:10045000F1CFBC9AC49A0895BC9AC498089597B3F2
:10046000906A97BB8111BC9A88B3806988BBBE989B
:100470001DB81EB808952DB19EB1803109F460C039
:100480008131C0F0803409F457C08038E9F08032FF
:10049000D9F4699A6898709A6330D9F46D986B9A18
:1004A0006A9ABC9B29C08DB180658DB977993AC095
:1004B00080E008958430E1F1883081F1823021F4C8
:1004C00069986898709A03C0699A689A70986330BE
:1004D00029F3643040F46130D9F16230D8F06D987E
:1004E0006B9A6A9807C0653079F1653058F46D9A57
:1004F0006B986A98BC99D7CFB499D5CF2DB99EB9CE
:100500008EEF0895663061F1673031F12DB99EB9F3
:100510008FEF08956D986B986A98ECCF6998689AF8
:10052000709AD5CF8EEF9EB18150E8F780E00895A4
:10053000699868987098CBCF699A68987098C7CF77
:100540006998689A7098C3CF6D9A6B986A9AD2CF5F
:100550006D986B986A9ACECF6D9A6B9A6A9ACACF49
:100560006D9A6B9A6A98C6CF8FB908958FB9779BA9
:10057000FECF8FB108958FEF8FB9779BFECF8FB1EC
:1005800008958F929F92AF92BF92CF92DF92EF9297
:10059000FF920F931F93CF93DF93982E5A016B0115
:1005A000822E0E942C02892D0E94B6028D2D992741
:1005B000AA27BB270E94B602C601AA27BB270E9412
:1005C000B602BB27AD2D9C2D8B2D0E94B6028A2D25
:1005D0000E94B602882D0E94B602E114F10469F06F
:1005E000C0E0D0E08FEF0E94B602F801EC0FFD1FD3
:1005F00080832196CE15DF05A8F30E942902DF91A2
:10060000CF911F910F91FF90EF90DF90CF90BF900F
:10061000AF909F908F900895A1E21A2EAA1BBB1B4A
:10062000FD010DC0AA1FBB1FEE1FFF1FA217B307BE
:10063000E407F50720F0A21BB30BE40BF50B661FD4
:10064000771F881F991F1A9469F760957095809598
:1006500090959B01AC01BD01CF010895F894FFCFA7
:10066000496E207370695F746573742E2E2E2E0D83
:100670000A0053656E64206F6E6520427974650DC3
:100680000A000D0A2A2A2A2A20534420546573742A
:10069000202A2A2A2A2A2A0D0A00496E6974205320
:1006A0005049204661696C65643A3078000D0A0053
:1006B000496E697420535049204F4B210D0A005355
:1006C000656E642037342B206379636C65732E2E3E
:1006D0002E004F4B0D0A0053656E642072657365E2
:1006E0007420636F6D6D616E642E2E2E003A0D0ABC
:0206F0002000E8
:00000001FF
