:100000000C942A000C9447000C9447000C94470071
:100010000C9447000C9447000C9447000C94470044
:100020000C9447000C9447000C9447000C94470034
:100030000C9447000C9447000C9447000C94470024
:100040000C9447000C9447000C9447000C94470014
:100050000C94470011241FBECFE5D4E0DEBFCDBF16
:1000600010E0A0E6B0E0EAE7F2E002C005900D92F1
:10007000A037B107D9F710E0A0E7B0E001C01D92AA
:10008000A137B107E1F70E94A9000C943B010C9441
:100090000000BC0180EF84BB88E10FB6F89481BDFD
:1000A00011BC0FBE6115710529F190E040E951E0E6
:1000B00028E833E105C0FA013197F1F721503040CB
:1000C00021153105C1F785B3806F85BB28E833E181
:1000D000FA013197F1F721503040D1F785B38F7095
:1000E00085BB992319F028E833E1E5CF61507040D2
:1000F000F9F6089591E0DACF80EF84BB15BA82E07B
:1001000081BB12BA1ABA17BA08955D9BFECF8CB99B
:1001100008951AB81BB886E880BD87E689B910BC77
:1001200088E18AB9089560E875E280E090E00E9475
:10013000C000089580EF84BB15BA82E081BB12BA7B
:100140001ABA17BA60E875E280E090E00E94C00039
:1001500008950E949A0082E090E00E94490080E6A3
:1001600090E00E94B400FFCFFC018081882339F029
:1001700031965D9BFECF8CB980818823C9F70895A5
:100180009B01AC0160E472E48FE090E00E941901F1
:1001900021503040404050401AB8C90180709078DA
:1001A000892B29F082E08BB93F7740705070BB27D4
:1001B000A52F942F832F80BD29B986E880BD8AB1F1
:1001C00088618AB981E08093700008955D9BFECFBD
:1001D00008955D9BFECF8CB908955D9BFECF50982E
:1001E00090FD509A8CB908955F9BFECF8CB1089515
:1001F000FC018491882339F031965D9BFECF8CB948
:1002000084918823C9F70895982F92959F7099300B
:1002100070F4905D5D9BFECF9CB98F70893028F49F
:10022000805D5D9BFECF8CB90895895AFACF995AAB
:10023000F1CFA1E21A2EAA1BBB1BFD010DC0AA1F04
:10024000BB1FEE1FFF1FA217B307E407F50720F03F
:10025000A21BB30BE40BF50B661F771F881F991FBA
:100260001A9469F760957095809590959B01AC0103
:0A027000BD01CF010895F894FFCFFF
:10027A0048656C6C6F2C776F726C64210D0A0000F4
:00000001FF
