:100000000C942A000C9447000C9447000C94470071
:100010000C9447000C9447000C9447000C94470044
:100020000C9447000C9447000C9447000C94470034
:100030000C9447000C9447000C9447000C94470024
:100040000C9447000C9447000C9447000C94470014
:100050000C94470011241FBECFE5D4E0DEBFCDBF16
:1000600010E0A0E6B0E0ECE3F2E002C005900D92F3
:10007000A037B107D9F710E0A0E7B0E001C01D92AA
:10008000A137B107E1F70E9499000C941C010C9470
:10009000000020EF24BB28E10FB6F89421BD11BC6D
:1000A0000FBE9C014FEF59E668E14150504060405F
:1000B000E1F700C0000045B3406F45BB4FEF59E684
:1000C00068E1415050406040E1F700C0000045B396
:1000D0004F7045BB009731F32150304019F7089518
:1000E00080EF84BB15BA82E081BB12BA1ABA17BA84
:1000F00008955D9BFECF8CB908951AB81BB886E8A9
:1001000080BD87E689B910BC88E18AB9089560E8A6
:1001100075E280E090E00E94B000089580EF84BB1B
:1001200015BA82E081BB12BA1ABA17BA0E948700C8
:1001300008950E948E0082E090E00E94490080E6CF
:1001400090E00E94A400FFCFFC018081882339F059
:1001500031965D9BFECF8CB981918823D1F70895AC
:100160009B01AC0160E472E48FE090E00E94FA0031
:1001700021503040404050401AB837FF05C082E05F
:100180008BB93F7740705070BB27A52F942F832FDA
:1001900080BD29B986E880BD8AB188618AB981E0CD
:1001A0008093700008955D9BFECF08955D9BFECF08
:1001B0008CB908955D9BFECF509890FD509A8CB9F4
:1001C00008955F9BFECF8CB10895982F92959F70F4
:1001D000993070F4905D5D9BFECF9CB98F70893033
:1001E00028F4805D5D9BFECF8CB90895895AFACFC3
:1001F000995AF1CFA1E21A2EAA1BBB1BFD010DC01B
:10020000AA1FBB1FEE1FFF1FA217B307E407F507C6
:1002100020F0A21BB30BE40BF50B661F771F881FA2
:10022000991F1A9469F760957095809590959B0138
:0C023000AC01BD01CF010895F894FFCF90
:10023C0048656C6C6F2C776F726C64210D0A000032
:00000001FF
